:1000000000308A001A280000223084008313000880
:10001000031917280630F800F701F70B0D28F80B25
:100020000C287B30F700F70B1328800B0A288A1165
:100030000A12412803081F398300FF30A0008316ED
:1000400003170908C039890003131F129F120030DB
:100050000317880083128701880189018313003008
:100060008316031387008312A00020102008831634
:1000700087000130831287061430A100FA30A200F5
:0A0080000428A10B3E283528630078
:04400E00E22CFF3F62
:00000001FF
;PIC16F887
;CRC=E415  CREATED="28-Sep-21 16:20"
