:1000000001308A0015290000F801F901F701FA0111
:100010003408031D0E283308031928281030B500B2
:100020000310B10DB20DF70DFA0D34087A02031D5D
:100030001B2833087702031C24283308F702031C0B
:10004000FA033408FA020314F80DF90DB50B102861
:1000500008002F3084008313000803193C28063061
:10006000F800F701F70B3228F80B31287B30F70046
:10007000F70B3828800B2F280800B2012A08B1009E
:100080000330B400E830B30004207708AF007A08EA
:10009000B000B2007708B100B4016430B3000420AE
:1000A0007708AF007A08B000B2007708B100B40159
:1000B0000A30B300042020307707840083137A18B5
:1000C00083170008B1000030AB008316870183124C
:1000D0003108870083168801F730831288000130C9
:1000E000AF00292083168801FF3083128800B201F7
:1000F0002A08B1000330B400E830B30004207708C8
:10010000AF007A08B000B2007708B100B4016430E3
:10011000B30004207708AF007A08B000B200770877
:10012000B100B4010A30B300042020307807840005
:100130008313791883170008B1000030AB008316D1
:10014000870183123108870083168801FB308312F0
:1001500088000130AF00292083168801FF30831208
:100160008800B2012A08B1000330B400E830B300BF
:1001700004207708AF007A08B000B2007708B10019
:10018000B4016430B3000420203078078400831366
:10019000791883170008B1000030AB00831687017F
:1001A00083123108870083168801FD30831288008E
:1001B0000130AF00292083168801FF3083128800A8
:1001C000B2012A08B1000330B400E830B3000420C3
:1001D0002030780784008313791883170008B10052
:1001E0000030AB0083168701831231088700831625
:1001F0008801FE30831288000130AF002920831669
:100200008801FF308312880008002C0CAD00AD0C73
:100210003F30AD05AE012D082E02031812293D20F6
:10022000AE0A0B298A110A124E2903081F398300CE
:10023000FF30AB00831603170908C0398900031388
:100240001F129F1200300317880083128701880154
:1002500089018313C0300313A000F930A100A4303A
:10026000A200B030A3009930A4009230A5008230E3
:10027000A600F830A7008030A8009030A900003018
:10028000831687008312AB0083168800FF30860038
:100290008312AA013D20C830AC000529AA0A4A29C8
:0402A0004929630085
:04400E00E22CFF3F62
:00000001FF
;PIC16F887
;CRC=941E  CREATED="05-Oct-21 21:42"
