:1000000000308A001A280000213084008313000881
:10001000031917280630F800F701F70B0D28F80B25
:100020000C287B30F700F70B1328800B0A288A1165
:100030000A12452803081F398300FF30A0008316E9
:1000400003170908C039890003131F129F120030DB
:1000500003178800831287018801890183132030E8
:100060008316031387008312A00020102008831634
:10007000870083120710A0162008831687008312BA
:10008000871A53280A30A1000428A01620088316D6
:1000900087008312871E53282010200883168700AC
:0A00A0000130831287063B2863003D
:04400E00E22CFF3F62
:00000001FF
;PIC16F887
;CRC=6964  CREATED="28-Sep-21 15:41"
