:1000000000308A000428000003081F398300A00183
:100010000130A100831603170908C03989000313B2
:100020001F129F1200300317880083128701880176
:10003000890183130030831603138800FF30860084
:1000400035308312900083168813831288138E0133
:100050000B308F00DC308E008316061483120618D6
:100060003928A10A21080B3C031D39280130A100C1
:10007000A0010C1C42280C108E010B308F00DC30CC
:100080008E00A00A21082002031D4C28A00183161F
:0C00900088138030831288062C2863003F
:04400E00E22CFF3F62
:00000001FF
;PIC16F887
;CRC=A954  CREATED="21-Oct-21 09:16"
