:1000000000308A00DA280000C8274310D624202CAC
:100010005510CC24A025C827A028D52000002630C4
:10002000840083130008031922280630F800F70122
:10003000F70B1828F80B17287B30F700F70B1E2852
:10004000800B1528080083168910831289108316E7
:10005000091083120914831688018312220888006C
:1000600083160911831209118316091183120915C8
:100070000130A6000F2008000530A6000F20383000
:10008000A20023200530A6000F200C30A200232060
:100090000630A20023200130A20023200230A60057
:1000A0000F208A110A12FB288316891083128910E7
:1000B00083160910831209148316880183122508F8
:1000C00088008316091183120911831609118312FE
:1000D00009150130A6000F2008000B08A2008B13A1
:1000E000831603178C170C140000000083120313EF
:1000F000A21B8B1703170C087F390319C1280313A0
:10010000A20003170D080313A30003170F0803131E
:10011000A4002208A5005420230803178D00031310
:10012000240803178F0003130B08A5008B138316F5
:1001300003178C170C140000000083120313A51B77
:100140008B1703170C0D0E0D7F390319C1280313EC
:10015000A20003170D080313A30003170F080313CE
:10016000A4002208A5005420230803178D000313C0
:10017000240803178F008D0A03198F0A03136D28B3
:10018000031703138A110A1205292308F801220212
:100190000318CD282208F700D928F7010830A40059
:1001A000A20DF70D230877020318F700F80DA40B32
:1001B000D028080003081F398300FF30A0008316F1
:1001C00003170908C039890003131F129F1200305A
:1001D0000317880083128701880189018313003087
:1001E00083160313880087008312A000FF30831654
:1001F000860083123C288330A2002320043003179A
:100200008D0000308F0003136D28A1012108143CDC
:10021000031C2A29C830A20023202108A2000A308A
:10022000A300C52030307807A200A5005420210883
:10023000A2000A30A300C52030307707A200A50035
:1002400054200230A200FA30A6000F20A20B23296E
:08025000A10A0629052963003B
:04400E00E22CFF3F62
:00000001FF
;PIC16F887
;CRC=D6D4  CREATED="07-Oct-21 09:38"
