:1000000000308A00182800002C3084008313000878
:10001000031917280630F800F701F70B0D28F80B25
:100020000C287B30F700F70B1328800B0A280800F8
:1000300003081F398300FF30AA0083161F149F1482
:100040001F159F118313C0308312A000F930A10047
:10005000A430A200B030A3009930A4009230A500D3
:100060008230A600F830A7008030A8009030A900A8
:100070000030831687008312AA00831688000030A0
:100080008312AA0083168701831220088700831633
:100090008801F730831288000230AB00FA30AC00E0
:1000A0000420AB0B4E2883168801FF308312880092
:1000B0000030AA0083168701831221088700831667
:1000C0008801FB30831288000230AB00FA30AC00AC
:1000D0000420AB0B662883168801FF30831288004A
:1000E0000030AA0083168701831222088700831636
:1000F0008801FB30831288000230AB00FA30AC007C
:100100000420AB0B7E2883168801FD308312880003
:100110000030AA0083168701831223088700831604
:100120008801FB30831288000230AB00FA30AC004B
:100130000420AB0B962883168801FE3083128800BA
:0601400083163F28630056
:02400E00323F3F
:00000001FF
;PIC16F877
;CRC=2106  CREATED="05-Oct-21 15:56"
