:1000000001308A00BF290000A03656002F3084003E
:1000100083130008031919280630F800F701F70BBD
:100020000F28F80B0E287B30F700F70B1528800BF4
:100030000C280800A0102008831687008312871060
:10004000201020088316870083120710831688016A
:1000500083122B0888002011200883168700831242
:10006000071120112008831687008312071501301D
:10007000AF00062008000530AF0006203830AB0086
:100080001A200530AF0006200C30AB001A200630D5
:10009000AB001A200130AB001A200230AF0006205E
:1000A0008A110A12E8298E30F7002C08F8002B0874
:1000B000F900FA01F808031D67287908F800F9012A
:1000C0000830F702F808031D6728F7016F280310AE
:1000D000F81B6E28F90DF80DF7036728F8138A113D
:1000E0000A120F2A2B080319E228B3002F0803195C
:1000F000E228B307031883287F30B302031CE228E9
:100100000319E22887288130B3070318E22833084F
:10011000F700F801F901FA012C08B700B7172D080C
:10012000B6002E08B5001830B300B401351CB02855
:100130003208FA07031CA228F90A031DA228F80AAC
:100140000319B4173108F907031CA928F80A031981
:10015000B4173008AD00AD172D08F8070318B41711
:10016000B40DF80CF90CFA0CB70CB60CB50C031066
:10017000B30B95280130F7070318E228F81BC728AE
:10018000B70DFA0DF90DF80DF7030319E228B71FA3
:10019000D828FA0A031DD828F90A031DD828F80A16
:1001A000031DD828F80CF90CFA0CF70A0319E228F9
:1001B0002C08B4003008B406B41FE028F817E6286D
:1001C000F813E628F701F801F901FA018A110A1279
:1001D000202A8E30F7002B08F7022C08F9002D0892
:1001E000F800F917F708031900290310F908031D8F
:1001F000FC28F80803190029F90CF80CF70BF5286E
:10020000AC1F0729F809F909F80A0319F90A8A1134
:100210000A12292A1030AF00F701FA01AC0CAB0C1E
:10022000031C18292D08F7070318FA0A2E08FA07E5
:10023000FA0CF70CF90CF80CAF0B0E298A110A1204
:10024000352AF801F901F701FA013008031D2B29BD
:100250002F08031945291030B1000310AD0DAE0D64
:10026000F70DFA0D30087A02031D38292F0877029E
:10027000031C41292F08F702031CFA033008FA0275
:100280000314F80DF90DB10B2D290800A01020085A
:10029000831687008312871020102008831687009A
:1002A000831207148316880183122E0888002011F8
:1002B0002008831687008312071120112008831657
:1002C0008700831207150130AF00062008000B08D5
:1002D000AB008B13831603178C170C14000000005F
:1002E00083120313AB1B8B1703170C087F390319F9
:1002F000BB290313AB0003170D080313AC0003174E
:100300000F080313AD002B08AE0046212C0803177D
:100310008D0003132D0803178F0003130B08AE0085
:100320008B13831603178C170C1400000000831224
:100330000313AE1B8B1703170C0D0E0D7F3903191A
:10034000BB290313AB0003170D080313AC000317FD
:100350000F080313AD002B08AE0046212C0803172D
:100360008D0003132D0803178F008D0A03198F0AC0
:1003700003136729031703138A110A120E2B0308AC
:100380001F398300FF30A0004E30AA006230A90060
:100390001C30A8008130A700831603170908C03954
:1003A000890003131F129F12003003178800831265
:1003B00087018801890183130030831603138800A5
:1003C00087008312A000FF308316850083123B282C
:1003D000831603170908C039890003131F129F12DF
:1003E000013003178800831203131F139F13831612
:1003F0009F1383121F140030F8001F08C3397804BC
:100400009F009F149F18022A83161E088312A500BE
:100410001E08A6002608AC002508AB0053287A0861
:10042000AE007908AD007808AC007708AB002A0868
:10043000B2002908B1002808B0002708AF007228D0
:100440007A08AE007908AD007808AC007708AB00F8
:10045000E9287908A2007808A100AC010A30AB00B5
:100460002208AE002108AD000A297908A400780806
:10047000A300C630AB001A202408AE002308AD004C
:100480002730B0001030AF0021217908AC00780887
:10049000AB003030AB070318AC0A2B08AE00462186
:1004A0002408AE002308AD002730B0001030AF00A4
:1004B00021217708AB007A08AC00AE007708AD00C8
:1004C0000330B000E830AF0021217908AC00780893
:1004D000AB003030AB070318AC0A2B08AE00462146
:1004E0002408AE002308AD002730B0001030AF0064
:1004F00021217708AB007A08AC00AE007708AD0088
:100500000330B000E830AF0021217708AB007A0853
:10051000AC00AE007708AD00B0016430AF0021211F
:100520007908AC007808AB003030AB070318AC0A90
:100530002B08AE0046212408AE002308AD0027306A
:10054000B0001030AF0021217708AB007A08AC0072
:10055000AE007708AD000330B000E830AF002121D5
:100560007708AB007A08AC00AE007708AD00B001A8
:100570006430AF0021217708AB007A08AC00AE00F0
:100580007708AD00B0010A30AF0021217908AC0036
:100590007808AB003030AB070318AC0A2B08AE006C
:1005A00046212408AE002308AD002730B0001030EB
:1005B000AF0021217708AB007A08AC00AE007708C5
:1005C000AD000330B000E830AF0021217708AB0068
:1005D0007A08AC00AE007708AD00B0016430AF001F
:1005E00021217708AB007A08AC00AE007708AD0097
:1005F000B0010A30AF0021217908AC007808AB00C7
:100600003030AB070318AC0A2B08AE00462104308B
:1006100003178D0000308F0003136729FB29630047
:04400E00E22CFF3F62
:00000001FF
;PIC16F887
;CRC=0E0D  CREATED="18-Nov-21 08:21"
