:1000000004308A00EF2C00004E34E9327410E437DB
:100010003A10000043004E34E9327410E4373A00DD
:100020004300C3307010E43720004E24CF26A018C0
:100030003400562C4C102D10B01A432643000C00EF
:100040002C30840083130008031933280630F8008D
:10005000F701F70B2928F80B28287B30F700F70B5E
:100060002F28800B26280800321838280812392833
:100070000816831608128312B218402888124128E5
:1000800088168316881283123219482808134928C3
:100090000817831608138312B219502888135128A1
:1000A0008817831688130000831208158316081119
:1000B0000230F700F70B5A285D2800008312081160
:1000C0008316081183120800B30183160816003046
:1000D0008312081A0130B304831688160030831285
:1000E000881A0130F7000310F70D7708B304831660
:1000F000081700308312081B0130F700F70DF70DC9
:10010000FC30F7057708B304831688170030831294
:10011000881B0130F700F70DF70DF70DF830F705E4
:100120007708B3043308F800080083160811081094
:1001300088108312081083160810081688160817EE
:1001400088178312881483168810000083120815FC
:10015000831608110000831264207808B200081189
:100160008316081100008312081583160811B82899
:10017000B9280000831264207808B10008118316A2
:10018000081108128812081388138312320EF70020
:10019000F030F70577083104F8007808B100B11F96
:1001A000D32883169D28AF08031DD8280810D92806
:1001B0000814831608100000831288108316881014
:1001C000000083120811831608118312300EB1004B
:1001D0000F30B1053108B200342030080F39B100BA
:1001E000B200342008002830A8000C30A9000130EB
:1001F000AA000630AB0008118316081183120810FC
:10020000831608108312881083168810081288122B
:10021000081388130811081088100F308312AC00DF
:1002200020200130A7002708033C031C1F290330AE
:10023000B20034200530AC002020A70A1329023078
:10024000B20034200530AC002020A7012708033C71
:10025000031C362928302707840083130008AC00CC
:10026000AF012C08B0009520A70A26298A110A128E
:10027000112D2C0B3C293F294030AD004029AD0108
:1002800001302B02AD072D088038AE00AF012E08DB
:10029000B000952008002A08073A031959290B3A9B
:1002A00003195E29063A03196629023A03196C29D3
:1002B00071290130AB00AC0039217629AF01013042
:1002C000B00095200230AC00202076290130AB0030
:1002D0000230AC0039217629AF011030B0009520F2
:1002E00076290130AF002A08B000952008000B08DD
:1002F000A7008B13831603178C170C140000000043
:1003000083120313A71B8B1703170C087F390319DC
:10031000CB290313A70003170D080313A800031725
:100320000F080313A9002708AA004B212808031768
:100330008D000313290803178F0003130B08AA006D
:100340008B13831603178C170C1400000000831204
:100350000313AA1B8B1703170C0D0E0D7F390319FE
:10036000CB290313A70003170D080313A8000317D5
:100370000F080313A9002708AA004B212808031718
:100380008D000313290803178F008D0A03198F0AA4
:1003900003137729031703130800F801F901F70184
:1003A000FA012C08031DD7292B080319F129103055
:1003B000AD000310A90DAA0DF70DFA0D2C087A0255
:1003C000031DE4292B087702031CED292B08F702F3
:1003D000031CFA032C08FA020314F80DF90DAD0BF7
:1003E000D92908000030F8001F08C33978049F009D
:1003F0001030F700F70BFA2900009F149F18FE2910
:1004000083161E088312A4001E08A5002508A80054
:100410002408A7008E30F7002808F8002708F90004
:10042000FA01F808031D1E2A7908F800F9010830BE
:10043000F702F808031D1E2AF701262A0310F81BED
:10044000252AF90DF80DF7031E2AF8137A08AA00D9
:100450007908A9007808A8007708A7004E30AE00F8
:100460006230AD001C30AC008130AB0027080319AE
:10047000A62AAF002B080319A62AAF070318472A9C
:100480007F30AF02031CA62A0319A62A4B2A81300B
:10049000AF070318A62A2F08F700F801F901FA019F
:1004A0002808B300B3172908B2002A08B100183091
:1004B000AF00B001311C742A2E08FA07031C662A0B
:1004C000F90A031D662AF80A0319B0172D08F9075F
:1004D000031C6D2AF80A0319B0172C08A900A917E4
:1004E0002908F8070318B017B00DF80CF90CFA0C2E
:1004F000B30CB20CB10C0310AF0B592A0130F70743
:100500000318A62AF81B8B2AB30DFA0DF90DF80D66
:10051000F7030319A62AB31F9C2AFA0A031D9C2A73
:10052000F90A031D9C2AF80A031D9C2AF80CF90CF1
:10053000FA0CF70A0319A62A2808B0002C08B006FE
:10054000B01FA42AF817AA2AF813AA2AF701F8015B
:10055000F901FA017A08AA007908A9007808A80028
:100560007708A7002A08AE002908AD002808AC00CB
:100570002708AB00B201B1012030B0008230AF00DB
:100580002B080319852BB7002F080319852BB702F9
:10059000031CCF2A7F30B7070318852BD52A81305B
:1005A000B702031C852B0319852B3708F700F801C8
:1005B000F901FA01B6012C08B500B5172D08B400F1
:1005C0002E08B3001930B7003208B3020318F82A16
:1005D0000130B4020318F82AB5020318F82AB6024B
:1005E0000318F82AB60AB50AB40A3208B3072A2B48
:1005F0003108B4020318132B0130B5020318132B72
:10060000B6020318132BB60AB50A3108B40732082C
:10061000B307031C2A2BB40A031D2A2BB50A031D9A
:100620002A2BB60A2A2B30088038B5020318292B4A
:100630000130B6020318292BB60A30088038B507F6
:100640003108B407031C072BB50A031D072BB60A94
:10065000072B7A14B70B2D2B382B0310B30DB40DC9
:10066000B50DB60D0310FA0DF90DF80DB80DE42A0D
:10067000381C402B0310F80CF90CFA0CB80C432B67
:10068000F7030319852BB81B6C2B0310B30DB40DA6
:10069000B50DB60D3208B3020318582B0130B40261
:1006A0000318582BB5020318582BB602031C7B2BDA
:1006B0003108B4020318632B0130B5020318632B11
:1006C000B602031C7B2B30088038B50203186C2B54
:1006D0000130B602031C7B2BFA0A031D7B2BF90A9F
:1006E000031D7B2BF80A031D7B2BF70A0319852BAF
:1006F000F80CF90CFA0C2C08B7003008B706B71F35
:10070000832BF817892BF813892BF701F801F901CE
:10071000FA017A08AA007908A9007808A8007708E1
:10072000A7008E30F7002708F7022808F9002908EB
:10073000F800F917F7080319A82B0310F908031D8F
:10074000A42BF8080319A82BF90CF80CF70B9D2B18
:10075000A81FAF2BF809F909F80A0319F90A790853
:10076000A3007808A2000130AC002020A308031DDC
:10077000102C2208633C031C102C0230AB0001300B
:10078000AC003921043003178D0000308F000313B3
:1007900077212308AA002208A900AC016430AB002D
:1007A000CD217708A7007A08A800AA007708A90039
:1007B000AC010A30AB00CD217908A8007808A70069
:1007C0003030A7070318A80A2708AA004B212308DE
:1007D000AA002208A900AC016430AB00CD21770843
:1007E000A7007A08A800AA007708A900AC010A307F
:1007F000AB00CD217708A7007A08A8003030A70702
:100800000318A80A2708AA004B21DF30AA004B21B1
:100810000A3003178D0000308F0003137721752CE9
:100820000230AB000130AC0039210B3003178D00D2
:1008300000308F00031377212308AA002208A900A3
:10084000AC016430AB00CD217908A8007808A7007E
:100850003030A7070318A80A2708AA004B2123084D
:10086000AA002208A900AC016430AB00CD217708B2
:10087000A7007A08A800AA007708A900AC010A30EE
:10088000AB00CD217908A8007808A7003030A70771
:100890000318A80A2708AA004B212308AA00220847
:1008A000A900AC016430AB00CD217708A7007A081D
:1008B000A800AA007708A900AC010A30AB00CD213E
:1008C0007708A7007A08A8003030A7070318A80AFD
:1008D0002708AA004B21DF30AA004B211030031754
:1008E0008D0000308F00031377218A110A126D2DBD
:1008F000A308031D822C2208233C031C822CA10187
:10090000A0019B2CA308031D8D2C22082D3C031C49
:100910008D2CA1010130A0009B2CA308031D982C55
:100920002208373C031C982CA1010230A0009B2C0C
:10093000A1010330A0002108A8002008A70003306F
:10094000AA00E830A9001030AB00F701FA01A80CAA
:10095000A70C031CB12C2908F7070318FA0A2A0868
:10096000FA07FA0CF70CF90CF80CAB0BA72C79086A
:10097000A8007808A7007908AA007808A900AC01A7
:100980000330AB00CD217908A8007808A700A80C97
:10099000A70CA80CA70CA80C27089500A80C280CDD
:1009A0003039F7001708CF39770497000530AB00CE
:1009B0000230AC003921113003178D0000308F0058
:1009C0000313772130302007A7002108A80003185F
:1009D000A80A2708AA004B218A110A126E2D0308C3
:1009E0001F398300A101A001FF30A6008316031761
:1009F0000908C039890003131F129F120030031722
:100A000088008312870188018901831300308316CF
:100A100003138800FF308500003087008312A60092
:100A2000F3281F139F1383169F1383121F1483161B
:100A300003170908C039890003131F129F120130E0
:100A4000031788000030F800063883120313920061
:100A5000F930831692008312261126088316870028
:100A6000831207110C30970083169B019C01013003
:100A70009D0083122611260883168700831207150E
:100A8000A611260883168700831287110630AB0053
:100A90000130AC003921153003178D0000308F0074
:100AA000031377210430AB000230AC003921193038
:100AB00003178D0000308F00031377210830A70043
:100AC000FA30AC002020A70B602D1F3003178D00DB
:100AD00000308F0003137721F229782C6C2D6300EE
:04400E00E22CFF3F62
:00000001FF
;PIC16F887
;CRC=9F9F  CREATED="09-Dec-21 23:06"
