:1000000000308A00D62800002028C82A4F27471031
:10001000B11C311A3619341A0000C427CE2320240B
:100020004F10000025308400831300080319252891
:100030000630F800F701F70B1B28F80B1A287B3065
:10004000F700F70B2128800B18280800A0102008C3
:1000500083168700831287102010200883168700DC
:10006000831207108316880183122108880020114B
:100070002008831687008312071120112008831699
:100080008700831207150130A500122008000530F3
:10009000A50012203830A10026200530A50012202E
:1000A0000C30A10026200630A10026200130A1003E
:1000B00026200230A50012208A110A12FD28A01065
:1000C00020088316870083128710201020088316CB
:1000D000870083120714831688018312240888007E
:1000E0002011200883168700831207112011200891
:1000F00083168700831207150130A500122008001F
:100100000B08A1008B13831603178C170C14000027
:10011000000083120313A11B8B1703170C087F39F0
:100120000319D4280313A10003170D080313A20019
:1001300003170F080313A3002108A4005F2022085F
:1001400003178D000313230803178F0003130B08F5
:10015000A4008B13831603178C170C1400000000E7
:1001600083120313A41B8B1703170C0D0E0D7F397D
:100170000319D4280313A10003170D080313A200C9
:1001800003170F080313A3002108A4005F2022080F
:1001900003178D000313230803178F008D0A03191B
:1001A0008F0A0313802803170313080003081F395D
:1001B0008300FF30A000831603170908C0398900A7
:1001C00003131F129F120030031788008312870148
:1001D00088018901831301308316031385000030E1
:1001E000860087008312A00083160914891409155C
:1001F000891588018312880147288030A1002620B4
:10020000043003178D0000308F0003138020C030AE
:10021000A10026200D3003178D0000308F0003133E
:060220008020112963009B
:04400E00E22CFF3F62
:00000001FF
;PIC16F887
;CRC=6C43  CREATED="20-Oct-21 23:54"
