:1000000000308A0018280000243084008313000880
:10001000031917280630F800F701F70B0D28F80B25
:100020000C287B30F700F70B1328800B0A280800F8
:1000300003081F398300FF30A00083160317090847
:10004000C039890003131F129F1200300317880064
:1000500083128701880189018313FF3083160313FC
:1000600088000030860087008312A0008316860176
:1000700083128601A0008316870183128701A101E4
:1000800008184F280A30A4000420081C4F28A10A91
:100090000030A0008316870183122108870088188A
:1000A0007F280A30A4000420881C7F28A201210890
:1000B000220203187E2883160610831206140230CB
:1000C000A300FA30A4000420A30B612883160610B5
:1000D0008312061022082102FF3EA3000030A00078
:1000E000831687018312230887000230A300FA30A9
:1000F000A4000420A30B7728A20A5728A1014028B6
:0201000063009A
:04400E00E22CFF3F62
:00000001FF
;PIC16F887
;CRC=D505  CREATED="29-Sep-21 22:09"
