:1000000001308A00EF2900004E34E9327410C43701
:100010003A10000043004E34E9327410C4373A10ED
:10002000000143008E30F7002E08F8002D08F9007B
:10003000FA01F808031D26287908F800F9010830AC
:10004000F702F808031D2628F7012E280310F81BD5
:100050002D28F90DF80DF7032628F8138A110A1236
:10006000482A2D080319A128B50031080319A12831
:10007000B507031842287F30B502031CA1280319D5
:10008000A12846288130B5070318A1283508F700B4
:10009000F801F901FA012E08B900B9172F08B800C4
:1000A0003008B7001830B500B601371C6F28340887
:1000B000FA07031C6128F90A031D6128F80A0319CD
:1000C000B6173308F907031C6828F80A0319B6178E
:1000D0003208AF00AF172F08F8070318B617B60D90
:1000E000F80CF90CFA0CB90CB80CB70C0310B50BE2
:1000F00054280130F7070318A128F81B8628B90DEA
:10010000FA0DF90DF80DF7030319A128B91F972867
:10011000FA0A031D9728F90A031D9728F80A031DF8
:100120009728F80CF90CFA0CF70A0319A1282E08E5
:10013000B6003208B606B61F9F28F817A528F81390
:10014000A528F701F801F901FA018A110A12592AC2
:100150008E30F7002D08F7022E08F9002F08F8005E
:10016000F917F7080319BF280310F908031DBB2866
:10017000F8080319BF28F90CF80CF70BB428AE1FC8
:10018000C628F809F909F80A0319F90A8A110A12A6
:10019000622AF801F901F701FA013208031DD32898
:1001A00031080319ED281030B3000310AF0DB00D66
:1001B000F70DFA0D32087A02031DE02831087702A4
:1001C000031CE9283108F702031CFA033208FA027B
:1001D0000314F80DF90DB30BD52808001030B10049
:1001E000F701FA01AE0CAD0C031CFC282F08F70731
:1001F0000318FA0A3008FA07FA0CF70CF90CF80C95
:10020000B10BF2288A110A12892A31308400831333
:100210000008031918290630F800F701F70B0E291A
:10022000F80B0D297B30F700F70B1429800B0B29F5
:1002300008002C102C088316870083120710AC10BE
:100240002C08831687008312871083168801831277
:100250002D0888002C112C088316870083120711A3
:100260002C112C0883168700831207150130B1006A
:10027000052108002C102C08831687008312071014
:10028000AC102C0883168700831287108316880110
:100290008312300888002C112C08831687008312E3
:1002A00007112C112C0883168700831207150130C3
:1002B000B100052108000B08AD008B13831603174E
:1002C0008C170C140000000083120313AD1B8B1756
:1002D00003170C087F390319AF290313AD00031767
:1002E0000D080313AE0003170F080313AF002D080A
:1002F000B0003A212E0803178D0003132F080317AF
:100300008F0003130B08B0008B13831603178C1791
:100310000C140000000083120313B01B8B1703178B
:100320000C0D0E0D7F390319AF290313AD00031710
:100330000D080313AE0003170F080313AF002D08B9
:10034000B0003A212E0803178D0003132F0803175E
:100350008F008D0A03198F0A03135B2903170313F8
:1003600008003008F8012F020318B9292F08F700F8
:10037000C529F7010830B100AF0DF70D300877023D
:100380000318F700F80DB10BBC2908002D08AF00C9
:100390006430B000B12130307807AE00B0003A21AF
:1003A0002D08AF006430B000B1217708AF000A30EB
:1003B000B000B12130307807AE00B0003A212D08EE
:1003C000AF006430B000B1217708AF000A30B00050
:1003D000B12130307707AE00B0003A2108000308A1
:1003E0001F3983004E30AB006230AA001C30A900D8
:1003F0008130A800FF30AC00831603170908C0390C
:10040000890003131F129F12003003178800831204
:100410008701880189018313FF3083160313850048
:10042000003087008312AC00831688000910891001
:10043000091189118312AC122C08831687008312CC
:100440008712831603170908C039890003131F1286
:100450009F12033003178800831203131F139F1387
:1004600083169F1383121F140030F8001F08C3392E
:1004700078049F009F149F183B2A83161E0883123E
:10048000A0001E08A1002108AE002008AD0012281F
:100490007A08B0007908AF007808AE007708AD00A0
:1004A0002B08B4002A08B3002908B2002808B100BC
:1004B00031287A08B0007908AF007808AE007708D4
:1004C000AD00A8287908A3007808A2002308B0008E
:1004D0002208AF00B2010A30B100C9207908A50096
:1004E0007808A4000430F8001F08C33978049F007E
:1004F0009F149F18792A83161E088312A0001E08D5
:10050000A1002108AE002008AD00B0016430AF00AA
:10051000EE287908AE007808AD007908B0007808B8
:10052000AF000330B200FF30B100C9207908A70046
:100530007808A6008030AD001921043003178D0023
:1005400000308F0003135B212608AD00C621DF3089
:10055000B0003A210A3003178D0000308F000313DA
:100560005B21C030AD0019210B3003178D00003026
:100570008F0003135B212608AD00C621DF30B000D9
:100580003A21113003178D0000308F0003135B21D7
:1005900027082502031CD92A031DD22A2408260273
:1005A0000318D92AAC122C088316870083128716E9
:1005B000DF2AAC122C088316870083128712342A94
:0205C0006300D6
:04400E00E22CFF3F62
:00000001FF
;PIC16F887
;CRC=40B9  CREATED="25-Nov-21 00:19"
