:1000000001308A00902900003A003A002028C82ACE
:100010004F274710B11C311A3619341A0001C42772
:10002000CE2320244F1000013A003A0030308400E3
:1000300083130008031929280630F800F701F70B8D
:100040001F28F80B1E287B30F700F70B2528800BA4
:100050001C280800A6102608831687008312871024
:10006000261026088316870083120710831688013E
:1000700083122C0888002611260883168700831215
:1000800007112611260883168700831207150130F1
:10009000B000162008000530B00016203830AC0043
:1000A0002A200530B00016200C30AC002A20063083
:1000B000AC002A200130AC002A200230B00016200B
:1000C0008A110A12B129A610260883168700831206
:1000D00087102610260883168700831207148316BC
:1000E000880183122F0888002611260883168700AE
:1000F000831207112611260883168700831207151D
:100100000130B000162008000B08AC008B138316DA
:1001100003178C170C140000000083120313AC1B90
:100120008B1703170C087F390319D8280313AC0069
:1001300003170D080313AD0003170F080313AE00D8
:100140002C08AF0063202D0803178D0003132E0821
:1001500003178F0003130B08AF008B1383160317CD
:100160008C170C140000000083120313AF1B8B17B5
:1001700003170C0D0E0D7F390319D8280313AC009B
:1001800003170D080313AD0003170F080313AE0088
:100190002C08AF0063202D0803178D0003132E08D1
:1001A00003178F008D0A03198F0A0313842803177E
:1001B000031308002D08F8012C020318E2282C086C
:1001C000F700EE28F7010830AE00AC0DF70D2D0852
:1001D00077020318F700F80DAE0BE5280800831628
:1001E00006148312061800290A30B0001620831660
:1001F000061483120618A30A2308033C0319A3015B
:100200000800AB012A082B0203188D29EF20230BCD
:100210008B29831686148312861811290130B000A9
:100220001620831686148312861CA40A2408183C00
:100230000319A401831686148312861C1A298316B7
:1002400006158312061927290130B00016208316DF
:100250000615831206193829A4032408FF3C031D40
:1002600033291730A400831606158312061D33297F
:100270002408A000C830AC002A202008AC000A30B6
:10028000AD00DA2030307807AC00AF0063202008E2
:10029000AC000A30AD00DA2030307707AC00AF0098
:1002A0006320043003178D0000308F000313842077
:1002B0002108AC000A30AD00DA2030307807AC00FD
:1002C000AF0063202108AC000A30AD00DA203030E6
:1002D0007707AC00AF006320053003178D000030B6
:1002E0008F00031384202208AC000A30AD00DA200E
:1002F00030307807AC00AF0063202208AC000A3031
:10030000AD00DA2030307707AC00AF006320013059
:10031000B0001620EF20AB0A02298A110A12262A01
:1003200003081F398300FF30A6008316031709084E
:10033000C039890003131F129F1200300317880071
:100340008312870188018901831300308316031308
:1003500087008312A60083168800FF308600831270
:100360004B288030AC002A20063003178D00003067
:100370008F0003138420C030AC002A200F300317F5
:100380008D0000308F00031384202408A700270865
:10039000173C031C2C2A2508A80028083B3C031CFA
:1003A0002A2AA90129083B3C031C282AC830AC0092
:1003B0002A202708AC000A30AD00DA203030780758
:1003C000AA00AF0063202708AC000A30AD00DA2095
:1003D00030307707AA00AF006320143003178D0078
:1003E00000308F00031384202808AC000A30AD00D1
:1003F000DA2030307807AA00AF0063202808AC006C
:100400000A30AD00DA2030307707AA00AF00632051
:10041000153003178D0000308F0003138420290846
:10042000AC000A30AD00DA2030307807AA00AF0007
:1004300063202908AC000A30AD00DA20303077079D
:10044000AA00AF006320C830AA000129A90AD22956
:0C045000A80ACD29A70AC729C529630006
:04400E00E22CFF3F62
:00000001FF
;PIC16F887
;CRC=DE5B  CREATED="20-Oct-21 23:17"
