:1000000000308A00A02800003030840083130008EC
:10001000031917280630F800F701F70B0D28F80B25
:100020000C287B30F700F70B1328800B0A280800F8
:1000300006181D280A30B000042006182628A10A38
:100040002108033C031D26280130A10008003108C7
:10005000F801300203182F283008F7003B28F70179
:100060000830B200B00DF70D310877020318F70021
:10007000F80DB20B322808002008B0000A30B10099
:10008000272022307707840083130008B000003057
:10009000AC0083168701831230088700831688011D
:1000A000F730831288000130B000042083168801E5
:1000B000FF30831288002008B0000A30B1002720EA
:1000C00022307807840083130008B0000030AC00B1
:1000D0008316870183123008870083168801FB305E
:1000E000831288000130B000042083168801FF309D
:1000F0008312880008002D0CAE00AE0C3F30AE0518
:10010000AF012E082F02031889283C201820AF0ABF
:1001100081280800A00A2008633C03189128633056
:10012000A000F430AD007B208A110A12DA28A00B5F
:100130009A28A001F430AD007B208A110A12DF2832
:1001400003081F398300A001FF30AC00831603179A
:100150000908C039890003131F129F1200300317CA
:10016000880083128701880189018313C03003133B
:10017000A200F930A300A430A400B030A50099304B
:10018000A6009230A7008230A800F830A900803085
:10019000AA009030AB000030831687008312AC00B9
:1001A00083168800FF308600831218203C20210B24
:1001B000DB288A28DF282108023C03199728D52844
:0201C0006300DA
:04400E00E22CFF3F62
:00000001FF
;PIC16F887
;CRC=C3F2  CREATED="06-Oct-21 21:34"
